{
  "contractName": "optimized_healthCare",
  "abi": [
    {
      "inputs": [],
      "payable": false,
      "stateMutability": "nonpayable",
      "type": "constructor"
    },
    {
      "anonymous": false,
      "inputs": [
        {
          "indexed": false,
          "internalType": "address",
          "name": "_doctor",
          "type": "address"
        },
        {
          "indexed": false,
          "internalType": "string",
          "name": "message",
          "type": "string"
        }
      ],
      "name": "doctorSignUp",
      "type": "event"
    },
    {
      "anonymous": false,
      "inputs": [
        {
          "indexed": false,
          "internalType": "address",
          "name": "patient_address",
          "type": "address"
        },
        {
          "indexed": false,
          "internalType": "string",
          "name": "message",
          "type": "string"
        },
        {
          "indexed": false,
          "internalType": "string",
          "name": "_doctor",
          "type": "string"
        },
        {
          "indexed": false,
          "internalType": "address",
          "name": "doctor_address",
          "type": "address"
        }
      ],
      "name": "grantDoctorAccess",
      "type": "event"
    },
    {
      "anonymous": false,
      "inputs": [
        {
          "indexed": false,
          "internalType": "address",
          "name": "_patient",
          "type": "address"
        },
        {
          "indexed": false,
          "internalType": "string",
          "name": "message",
          "type": "string"
        }
      ],
      "name": "patientSignUp",
      "type": "event"
    },
    {
      "anonymous": false,
      "inputs": [
        {
          "indexed": false,
          "internalType": "address",
          "name": "patient_address",
          "type": "address"
        },
        {
          "indexed": false,
          "internalType": "string",
          "name": "message",
          "type": "string"
        },
        {
          "indexed": false,
          "internalType": "string",
          "name": "_doctor",
          "type": "string"
        },
        {
          "indexed": false,
          "internalType": "address",
          "name": "doctor_address",
          "type": "address"
        }
      ],
      "name": "revokeDoctorAccess",
      "type": "event"
    },
    {
      "constant": false,
      "inputs": [
        {
          "internalType": "address",
          "name": "_id",
          "type": "address"
        },
        {
          "internalType": "string",
          "name": "_name",
          "type": "string"
        },
        {
          "internalType": "string",
          "name": "_location",
          "type": "string"
        }
      ],
      "name": "hospitalSignUp",
      "outputs": [],
      "payable": false,
      "stateMutability": "nonpayable",
      "type": "function"
    },
    {
      "constant": false,
      "inputs": [
        {
          "internalType": "string",
          "name": "_name",
          "type": "string"
        },
        {
          "internalType": "string",
          "name": "_contact",
          "type": "string"
        },
        {
          "internalType": "string",
          "name": "_gender",
          "type": "string"
        }
      ],
      "name": "signupPatient",
      "outputs": [],
      "payable": false,
      "stateMutability": "nonpayable",
      "type": "function"
    },
    {
      "constant": false,
      "inputs": [
        {
          "internalType": "address",
          "name": "_id",
          "type": "address"
        },
        {
          "internalType": "string",
          "name": "_name",
          "type": "string"
        },
        {
          "internalType": "string",
          "name": "_contact",
          "type": "string"
        },
        {
          "internalType": "string",
          "name": "_specialization",
          "type": "string"
        }
      ],
      "name": "signupDoctor",
      "outputs": [],
      "payable": false,
      "stateMutability": "nonpayable",
      "type": "function"
    },
    {
      "constant": false,
      "inputs": [
        {
          "internalType": "address",
          "name": "doctor_id",
          "type": "address"
        }
      ],
      "name": "grantAccessToDoctor",
      "outputs": [],
      "payable": false,
      "stateMutability": "nonpayable",
      "type": "function"
    },
    {
      "constant": false,
      "inputs": [
        {
          "internalType": "address",
          "name": "doctor_id",
          "type": "address"
        }
      ],
      "name": "revokeAccessFromDoctor",
      "outputs": [],
      "payable": false,
      "stateMutability": "nonpayable",
      "type": "function"
    },
    {
      "constant": false,
      "inputs": [
        {
          "internalType": "string",
          "name": "_file_name",
          "type": "string"
        },
        {
          "internalType": "string",
          "name": "_file_type",
          "type": "string"
        },
        {
          "internalType": "string",
          "name": "_file_hash",
          "type": "string"
        }
      ],
      "name": "addUserFiles",
      "outputs": [],
      "payable": false,
      "stateMutability": "nonpayable",
      "type": "function"
    },
    {
      "constant": true,
      "inputs": [
        {
          "internalType": "address",
          "name": "sender",
          "type": "address"
        }
      ],
      "name": "getUserFiles",
      "outputs": [
        {
          "components": [
            {
              "internalType": "string",
              "name": "file_name",
              "type": "string"
            },
            {
              "internalType": "string",
              "name": "file_type",
              "type": "string"
            },
            {
              "internalType": "string",
              "name": "file_hash",
              "type": "string"
            }
          ],
          "internalType": "struct optimized_healthCare.files[]",
          "name": "",
          "type": "tuple[]"
        }
      ],
      "payable": false,
      "stateMutability": "view",
      "type": "function"
    },
    {
      "constant": true,
      "inputs": [],
      "name": "getPatientInfo",
      "outputs": [
        {
          "internalType": "string",
          "name": "",
          "type": "string"
        },
        {
          "internalType": "address",
          "name": "",
          "type": "address"
        },
        {
          "internalType": "string",
          "name": "",
          "type": "string"
        },
        {
          "internalType": "bytes32[]",
          "name": "",
          "type": "bytes32[]"
        },
        {
          "internalType": "address[]",
          "name": "",
          "type": "address[]"
        },
        {
          "internalType": "string",
          "name": "",
          "type": "string"
        },
        {
          "internalType": "string",
          "name": "",
          "type": "string"
        }
      ],
      "payable": false,
      "stateMutability": "view",
      "type": "function"
    },
    {
      "constant": true,
      "inputs": [],
      "name": "getDoctorInfo",
      "outputs": [
        {
          "internalType": "string",
          "name": "",
          "type": "string"
        },
        {
          "internalType": "address",
          "name": "",
          "type": "address"
        },
        {
          "internalType": "address[]",
          "name": "",
          "type": "address[]"
        },
        {
          "internalType": "string",
          "name": "",
          "type": "string"
        },
        {
          "internalType": "string",
          "name": "",
          "type": "string"
        }
      ],
      "payable": false,
      "stateMutability": "view",
      "type": "function"
    },
    {
      "constant": true,
      "inputs": [
        {
          "internalType": "uint64",
          "name": "_adhaar_number",
          "type": "uint64"
        }
      ],
      "name": "checkDoctorInfo",
      "outputs": [
        {
          "internalType": "bool",
          "name": "",
          "type": "bool"
        },
        {
          "internalType": "address",
          "name": "",
          "type": "address"
        }
      ],
      "payable": false,
      "stateMutability": "view",
      "type": "function"
    },
    {
      "constant": true,
      "inputs": [
        {
          "internalType": "uint64",
          "name": "_adhaar_number",
          "type": "uint64"
        }
      ],
      "name": "checkPatientInfo",
      "outputs": [
        {
          "internalType": "bool",
          "name": "",
          "type": "bool"
        },
        {
          "internalType": "address",
          "name": "",
          "type": "address"
        }
      ],
      "payable": false,
      "stateMutability": "view",
      "type": "function"
    },
    {
      "constant": true,
      "inputs": [
        {
          "internalType": "address",
          "name": "pat",
          "type": "address"
        }
      ],
      "name": "getPatientInfoForDoctor",
      "outputs": [
        {
          "internalType": "string",
          "name": "",
          "type": "string"
        },
        {
          "internalType": "string",
          "name": "",
          "type": "string"
        },
        {
          "internalType": "address",
          "name": "",
          "type": "address"
        },
        {
          "components": [
            {
              "internalType": "string",
              "name": "file_name",
              "type": "string"
            },
            {
              "internalType": "string",
              "name": "file_type",
              "type": "string"
            },
            {
              "internalType": "string",
              "name": "file_hash",
              "type": "string"
            }
          ],
          "internalType": "struct optimized_healthCare.files[]",
          "name": "",
          "type": "tuple[]"
        }
      ],
      "payable": false,
      "stateMutability": "view",
      "type": "function"
    },
    {
      "constant": true,
      "inputs": [],
      "name": "getHospitalInfo",
      "outputs": [
        {
          "internalType": "address",
          "name": "",
          "type": "address"
        },
        {
          "internalType": "string",
          "name": "",
          "type": "string"
        },
        {
          "internalType": "string",
          "name": "",
          "type": "string"
        }
      ],
      "payable": false,
      "stateMutability": "view",
      "type": "function"
    },
    {
      "constant": true,
      "inputs": [],
      "name": "getOwnerInfo",
      "outputs": [
        {
          "internalType": "address",
          "name": "",
          "type": "address"
        }
      ],
      "payable": false,
      "stateMutability": "view",
      "type": "function"
    },
    {
      "constant": false,
      "inputs": [
        {
          "internalType": "address",
          "name": "_user",
          "type": "address"
        },
        {
          "internalType": "address",
          "name": "_patient",
          "type": "address"
        }
      ],
      "name": "hospitalGrantAccess",
      "outputs": [],
      "payable": false,
      "stateMutability": "nonpayable",
      "type": "function"
    },
    {
      "constant": false,
      "inputs": [
        {
          "internalType": "address",
          "name": "_id",
          "type": "address"
        },
        {
          "internalType": "string",
          "name": "_name",
          "type": "string"
        },
        {
          "internalType": "string",
          "name": "_location",
          "type": "string"
        }
      ],
      "name": "addHospital",
      "outputs": [],
      "payable": false,
      "stateMutability": "nonpayable",
      "type": "function"
    },
    {
      "constant": false,
      "inputs": [
        {
          "internalType": "address",
          "name": "_id",
          "type": "address"
        },
        {
          "internalType": "string",
          "name": "_name",
          "type": "string"
        }
      ],
      "name": "regInsuranceComp",
      "outputs": [],
      "payable": false,
      "stateMutability": "nonpayable",
      "type": "function"
    },
    {
      "constant": true,
      "inputs": [],
      "name": "getInsuranceCompInfo",
      "outputs": [
        {
          "internalType": "address",
          "name": "",
          "type": "address"
        },
        {
          "internalType": "string",
          "name": "",
          "type": "string"
        },
        {
          "internalType": "address[]",
          "name": "",
          "type": "address[]"
        }
      ],
      "payable": false,
      "stateMutability": "view",
      "type": "function"
    },
    {
      "constant": false,
      "inputs": [
        {
          "internalType": "address",
          "name": "_insuranceComp",
          "type": "address"
        },
        {
          "internalType": "address",
          "name": "_pat",
          "type": "address"
        }
      ],
      "name": "addPatientToInsuranceComp",
      "outputs": [],
      "payable": false,
      "stateMutability": "nonpayable",
      "type": "function"
    },
    {
      "constant": false,
      "inputs": [
        {
          "internalType": "address",
          "name": "_doc",
          "type": "address"
        },
        {
          "internalType": "string",
          "name": "_name",
          "type": "string"
        },
        {
          "internalType": "string",
          "name": "_DOB",
          "type": "string"
        },
        {
          "internalType": "uint24",
          "name": "_pincode",
          "type": "uint24"
        },
        {
          "internalType": "uint64",
          "name": "_adhaar_number",
          "type": "uint64"
        }
      ],
      "name": "addDoctorAdhaarInfo",
      "outputs": [],
      "payable": false,
      "stateMutability": "nonpayable",
      "type": "function"
    },
    {
      "constant": false,
      "inputs": [
        {
          "internalType": "address",
          "name": "_pat",
          "type": "address"
        },
        {
          "internalType": "string",
          "name": "_name",
          "type": "string"
        },
        {
          "internalType": "string",
          "name": "_DOB",
          "type": "string"
        },
        {
          "internalType": "uint24",
          "name": "_pincode",
          "type": "uint24"
        },
        {
          "internalType": "uint64",
          "name": "_adhaar_number",
          "type": "uint64"
        }
      ],
      "name": "addPatientAdhaarInfo",
      "outputs": [],
      "payable": false,
      "stateMutability": "nonpayable",
      "type": "function"
    }
  ],
  "bytecode": "0x608060405234801561001057600080fd5b5060008054600160a060020a0319167337e9ffc8cba8b57fe0acf3e13ae0b1837bb7fc1517905561597e80620000476000396000f3fe608060405234801561001057600080fd5b5060043610610194576000357c010000000000000000000000000000000000000000000000000000000090048063828566fc116100f5578063b380f5c6116100a9578063c981893011610083578063c98189301461032b578063facf83231461033e578063fe59cc1a1461035357610194565b8063b380f5c6146102e8578063b609af2614610301578063c4fa7adb1461031457610194565b806397f7f06d116100da57806397f7f06d146102a1578063ab9cff18146102b4578063ae2ed42f146102c757610194565b8063828566fc1461027b578063859287b11461028e57610194565b8063326df6641161014c5780633b17c592116101315780633b17c5921461023e578063405b8af014610255578063629e559d1461026857610194565b8063326df664146102105780633b0e67ec1461022b57610194565b80631fd4be9b1161017d5780631fd4be9b146101d75780632ae48e40146101ea5780632cecb523146101fd57610194565b80631c8e251c146101995780631fc37922146101ae575b600080fd5b6101ac6101a7366004614f09565b610376565b005b6101c16101bc366004614f09565b610ad2565b6040516101ce91906156a7565b60405180910390f35b6101ac6101e53660046150d7565b610d0a565b6101ac6101f836600461517c565b610fcc565b6101ac61020b366004614f2f565b611063565b610218611503565b6040516101ce9796959493929190615738565b6101ac610239366004614fb1565b611c67565b610246611ea8565b6040516101ce93929190615620565b6101ac61026336600461502e565b611ff7565b6101ac610276366004614f09565b6123d5565b6101ac610289366004614fb1565b612a91565b6101ac61029c366004614f69565b612c1e565b6101ac6102af366004614f2f565b612e10565b6101ac6102c236600461517c565b612eb3565b6102da6102d53660046151b4565b61329f565b6040516101ce9291906156b8565b6102f06137de565b6040516101ce9594939291906156d3565b6101ac61030f3660046150d7565b613d3c565b61031c613fb8565b6040516101ce93929190615654565b6102da6103393660046151b4565b6141c1565b610346614610565b6040516101ce9190615592565b610366610361366004614f09565b614639565b6040516101ce94939291906157c7565b3361037f614c0b565b600160a060020a03821660009081526002602081815260409283902083518154610120601f60001960018416156101009081029190910190931696909604958601859004909402820184019095529384018381529092849284919084018282801561042b5780601f106104005761010080835404028352916020019161042b565b820191906000526020600020905b81548152906001019060200180831161040e57829003601f168201915b50505050508152602001600182018054600181600116156101000203166002900480601f0160208091040260200160405190810160405280929190818152602001828054600181600116156101000203166002900480156104cd5780601f106104a2576101008083540402835291602001916104cd565b820191906000526020600020905b8154815290600101906020018083116104b057829003601f168201915b505050918352505060028281015467ffffffffffffffff811660208085019190915268010000000000000000909104600160a060020a031660408085019190915260038501805482516101006001831615026000190190911694909404601f8101849004840285018401909252818452606090940193918301828280156105955780601f1061056a57610100808354040283529160200191610595565b820191906000526020600020905b81548152906001019060200180831161057857829003601f168201915b505050918352505060048201805460408051602060026001851615610100026000190190941693909304601f81018490048402820184019092528181529382019392918301828280156106295780601f106105fe57610100808354040283529160200191610629565b820191906000526020600020905b81548152906001019060200180831161060c57829003601f168201915b505050505081526020016005820180548060200260200160405190810160405280929190818152602001828054801561068157602002820191906000526020600020905b81548152602001906001019080831161066d575b50505050508152602001600682018054806020026020016040519081016040528092919081815260200182805480156106e357602002820191906000526020600020905b8154600160a060020a031681526001909101906020018083116106c5575b50505050508152505090506000600160a060020a03168160600151600160a060020a03161161071157600080fd5b8261071a614c63565b600160a060020a0382166000908152600160208181526040928390208351815460029481161561010002600019011693909304601f8101839004909202830160e090810190945260c0830182815292939092849290918491908401828280156107c45780601f10610799576101008083540402835291602001916107c4565b820191906000526020600020905b8154815290600101906020018083116107a757829003601f168201915b5050509183525050600182810154600160a060020a0381166020808501919091527401000000000000000000000000000000000000000090910467ffffffffffffffff166040808501919091526002808601805483516101009682161596909602600019011691909104601f8101849004840285018401909252818452606090940193918301828280156108995780601f1061086e57610100808354040283529160200191610899565b820191906000526020600020905b81548152906001019060200180831161087c57829003601f168201915b505050918352505060038201805460408051602060026001851615610100026000190190941693909304601f810184900484028201840190925281815293820193929183018282801561092d5780601f106109025761010080835404028352916020019161092d565b820191906000526020600020905b81548152906001019060200180831161091057829003601f168201915b505050505081526020016004820180548060200260200160405190810160405280929190818152602001828054801561098f57602002820191906000526020600020905b8154600160a060020a03168152600190910190602001808311610971575b50505050508152505090506000600160a060020a03168160200151600160a060020a0316116109bd57600080fd5b336000818152600260209081526040808320600160a060020a038a16808552600180855283862096865260038552838620918652935292205491929161ffff1610610a0757600080fd5b600682018054600180820180845560009384526020808520909301805473ffffffffffffffffffffffffffffffffffffffff19908116600160a060020a038e1690811790925533808752600386526040808820938852928652828720805461ffff191661ffff8616179055600488018054958601815587529490952090920180549094168317909355517fe239c4e608cb32aaf8ef7214f811e28ea27c91cad9f719be74579c18fc2e983191610ac09185908c906155bf565b60405180910390a15050505050505050565b600160a060020a0381166000908152600560209081526040808320805482518185028101850190935280835260609492939192909184015b82821015610cff5760008481526020908190206040805160038602909201805460026001821615610100026000190190911604601f8101859004909402830160809081019092526060830184815292939092849290918491840182828015610bb35780601f10610b8857610100808354040283529160200191610bb3565b820191906000526020600020905b815481529060010190602001808311610b9657829003601f168201915b50505050508152602001600182018054600181600116156101000203166002900480601f016020809104026020016040519081016040528092919081815260200182805460018160011615610100020316600290048015610c555780601f10610c2a57610100808354040283529160200191610c55565b820191906000526020600020905b815481529060010190602001808311610c3857829003601f168201915b5050509183525050600282810180546040805160206001841615610100026000190190931694909404601f81018390048302850183019091528084529381019390830182828015610ce75780601f10610cbc57610100808354040283529160200191610ce7565b820191906000526020600020905b815481529060010190602001808311610cca57829003601f168201915b50505050508152505081526020019060010190610b0a565b505050509050919050565b610d12614cac565b600160a060020a03868116600090815260096020908152604091829020825160a081018452815494851681527401000000000000000000000000000000000000000090940467ffffffffffffffff1684830152600180820180548551600261010094831615949094026000190190911692909204601f81018590048502830185018652808352929486019391929091830182828015610df25780601f10610dc757610100808354040283529160200191610df2565b820191906000526020600020905b815481529060010190602001808311610dd557829003601f168201915b5050509183525050600282810180546040805160206001841615610100026000190190931694909404601f81018390048302850183019091528084529381019390830182828015610e845780601f10610e5957610100808354040283529160200191610e84565b820191906000526020600020905b815481529060010190602001808311610e6757829003601f168201915b50505091835250506003919091015462ffffff1660209182015281015190915067ffffffffffffffff1615610eb857600080fd5b6040805160a081018252600160a060020a0388811680835267ffffffffffffffff86811660208086019182528587018c8152606087018c905262ffffff8b1660808801526000948552600982529690932085518154925173ffffffffffffffffffffffffffffffffffffffff199093169516949094177fffffffff0000000000000000ffffffffffffffffffffffffffffffffffffffff167401000000000000000000000000000000000000000091909216021782559251805192939192610f869260018501920190614cf3565b5060608201518051610fa2916002840191602090910190614cf3565b50608091909101516003909101805462ffffff191662ffffff909216919091179055505050505050565b336000908152600560209081526040808320815160608101835287815280840187905291820185905280546001810180835591855293839020825180519295939460039094029091019261102592849290910190614cf3565b50602082810151805161103e9260018501920190614cf3565b506040820151805161105a916002840191602090910190614cf3565b50505050505050565b8061106c614c0b565b600160a060020a03821660009081526002602081815260409283902083518154610120601f6000196001841615610100908102919091019093169690960495860185900490940282018401909552938401838152909284928491908401828280156111185780601f106110ed57610100808354040283529160200191611118565b820191906000526020600020905b8154815290600101906020018083116110fb57829003601f168201915b50505050508152602001600182018054600181600116156101000203166002900480601f0160208091040260200160405190810160405280929190818152602001828054600181600116156101000203166002900480156111ba5780601f1061118f576101008083540402835291602001916111ba565b820191906000526020600020905b81548152906001019060200180831161119d57829003601f168201915b505050918352505060028281015467ffffffffffffffff811660208085019190915268010000000000000000909104600160a060020a031660408085019190915260038501805482516101006001831615026000190190911694909404601f8101849004840285018401909252818452606090940193918301828280156112825780601f1061125757610100808354040283529160200191611282565b820191906000526020600020905b81548152906001019060200180831161126557829003601f168201915b505050918352505060048201805460408051602060026001851615610100026000190190941693909304601f81018490048402820184019092528181529382019392918301828280156113165780601f106112eb57610100808354040283529160200191611316565b820191906000526020600020905b8154815290600101906020018083116112f957829003601f168201915b505050505081526020016005820180548060200260200160405190810160405280929190818152602001828054801561136e57602002820191906000526020600020905b81548152602001906001019080831161135a575b50505050508152602001600682018054806020026020016040519081016040528092919081815260200182805480156113d057602002820191906000526020600020905b8154600160a060020a031681526001909101906020018083116113b2575b50505050508152505090506000600160a060020a03168160600151600160a060020a0316116113fe57600080fd5b600160a060020a03808516600090815260016020818152604080842088861685526002909252909220908201549192909116156114fb57600160a060020a038086166000908152600360209081526040808320938a1683529290522054600161ffff9091161061146d57600080fd5b6006810180546001818101808455600093845260208085209093018054600160a060020a03808d1673ffffffffffffffffffffffffffffffffffffffff1992831681179093558b16808752600386526040808820938852928652918620805461ffff90941661ffff199094169390931790925560048701805493840181558552929093200180549092161790555b505050505050565b60606000606080606080606033611518614c0b565b600160a060020a03821660009081526002602081815260409283902083518154610120601f6000196001841615610100908102919091019093169690960495860185900490940282018401909552938401838152909284928491908401828280156115c45780601f10611599576101008083540402835291602001916115c4565b820191906000526020600020905b8154815290600101906020018083116115a757829003601f168201915b50505050508152602001600182018054600181600116156101000203166002900480601f0160208091040260200160405190810160405280929190818152602001828054600181600116156101000203166002900480156116665780601f1061163b57610100808354040283529160200191611666565b820191906000526020600020905b81548152906001019060200180831161164957829003601f168201915b505050918352505060028281015467ffffffffffffffff811660208085019190915268010000000000000000909104600160a060020a031660408085019190915260038501805482516101006001831615026000190190911694909404601f81018490048402850184019092528184526060909401939183018282801561172e5780601f106117035761010080835404028352916020019161172e565b820191906000526020600020905b81548152906001019060200180831161171157829003601f168201915b505050918352505060048201805460408051602060026001851615610100026000190190941693909304601f81018490048402820184019092528181529382019392918301828280156117c25780601f10611797576101008083540402835291602001916117c2565b820191906000526020600020905b8154815290600101906020018083116117a557829003601f168201915b505050505081526020016005820180548060200260200160405190810160405280929190818152602001828054801561181a57602002820191906000526020600020905b815481526020019060010190808311611806575b505050505081526020016006820180548060200260200160405190810160405280929190818152602001828054801561187c57602002820191906000526020600020905b8154600160a060020a0316815260019091019060200180831161185e575b50505050508152505090506000600160a060020a03168160600151600160a060020a0316116118aa57600080fd5b6118b2614c0b565b3360009081526002602081815260409283902083518154610120601f6000196001841615610100908102919091019093169690960495860185900490940282018401909552938401838152909284928491908401828280156119555780601f1061192a57610100808354040283529160200191611955565b820191906000526020600020905b81548152906001019060200180831161193857829003601f168201915b50505050508152602001600182018054600181600116156101000203166002900480601f0160208091040260200160405190810160405280929190818152602001828054600181600116156101000203166002900480156119f75780601f106119cc576101008083540402835291602001916119f7565b820191906000526020600020905b8154815290600101906020018083116119da57829003601f168201915b505050918352505060028281015467ffffffffffffffff811660208085019190915268010000000000000000909104600160a060020a031660408085019190915260038501805482516101006001831615026000190190911694909404601f810184900484028501840190925281845260609094019391830182828015611abf5780601f10611a9457610100808354040283529160200191611abf565b820191906000526020600020905b815481529060010190602001808311611aa257829003601f168201915b505050918352505060048201805460408051602060026001851615610100026000190190941693909304601f8101849004840282018401909252818152938201939291830182828015611b535780601f10611b2857610100808354040283529160200191611b53565b820191906000526020600020905b815481529060010190602001808311611b3657829003601f168201915b5050505050815260200160058201805480602002602001604051908101604052809291908181526020018280548015611bab57602002820191906000526020600020905b815481526020019060010190808311611b97575b5050505050815260200160068201805480602002602001604051908101604052809291908181526020018280548015611c0d57602002820191906000526020600020905b8154600160a060020a03168152600190910190602001808311611bef575b50505050508152505090508060000151816060015182602001518360c001518460e0015185608001518660a00151869650849450839350829250819150809050995099509950995099509950995050505090919293949596565b600054600160a060020a03163314611c7e57600080fd5b611c86614d71565b600160a060020a03848116600090815260066020908152604091829020825160608101845281549094168452600180820180548551600261010094831615949094026000190190911692909204601f8101859004850283018501909552848252919385840193919291830182828015611d405780601f10611d1557610100808354040283529160200191611d40565b820191906000526020600020905b815481529060010190602001808311611d2357829003601f168201915b5050509183525050600282810180546040805160206001841615610100026000190190931694909404601f81018390048302850183019091528084529381019390830182828015611dd25780601f10611da757610100808354040283529160200191611dd2565b820191906000526020600020905b815481529060010190602001808311611db557829003601f168201915b505050919092525050815191925050600160a060020a031615611df457600080fd5b604051611e0090615587565b604051809103902083604051602001611e19919061557b565b604051602081830303815290604052805190602001201415611e3a57600080fd5b60408051606081018252600160a060020a038681168083526020808401888152848601889052600092835260068252949091208351815473ffffffffffffffffffffffffffffffffffffffff19169316929092178255925180519293919261103e9260018501920190614cf3565b6000606080611eb5614d71565b3360009081526007602090815260409182902082516060810184528154600160a060020a03168152600180830180548651600261010094831615949094026000190190911692909204601f8101869004860283018601909652858252919492938581019391929190830182828015611f6e5780601f10611f4357610100808354040283529160200191611f6e565b820191906000526020600020905b815481529060010190602001808311611f5157829003601f168201915b5050505050815260200160038201805480602002602001604051908101604052809291908181526020018280548015611fd057602002820191906000526020600020905b8154600160a060020a03168152600190910190602001808311611fb2575b5050509190925250508151602083015160409093015190965091945090925050505b909192565b600160a060020a0384166000908152600160205260409020612017614cac565b600160a060020a03868116600090815260096020908152604091829020825160a081018452815494851681527401000000000000000000000000000000000000000090940467ffffffffffffffff1684830152600180820180548551600261010094831615949094026000190190911692909204601f810185900485028301850186528083529294860193919290918301828280156120f75780601f106120cc576101008083540402835291602001916120f7565b820191906000526020600020905b8154815290600101906020018083116120da57829003601f168201915b5050509183525050600282810180546040805160206001841615610100026000190190931694909404601f810183900483028501830190915280845293810193908301828280156121895780601f1061215e57610100808354040283529160200191612189565b820191906000526020600020905b81548152906001019060200180831161216c57829003601f168201915b50505091835250506003919091015462ffffff166020909101526040519091506121b290615587565b6040518091039020856040516020016121cb919061557b565b6040516020818303038152906040528051906020012014156121ec57600080fd5b6001820154600160a060020a03161561220457600080fd5b6000816020015167ffffffffffffffff161161221f57600080fd5b6040518060c0016040528086815260200187600160a060020a03168152602001826020015167ffffffffffffffff168152602001858152602001848152602001600060405190808252806020026020018201604052801561228a578160200160208202803883390190505b509052600160a060020a03871660009081526001602090815260409091208251805191926122bd92849290910190614cf3565b50602082810151600183018054604086015167ffffffffffffffff1674010000000000000000000000000000000000000000027fffffffff0000000000000000ffffffffffffffffffffffffffffffffffffffff600160a060020a0390941673ffffffffffffffffffffffffffffffffffffffff1990921691909117929092169190911790556060830151805161235a9260028501920190614cf3565b5060808201518051612376916003840191602090910190614cf3565b5060a08201518051612392916004840191602090910190614d9b565b509050507fdd0aa1d3beead09f31cc046643e0d63829e7c7f43e532c2523d978bc9c3bfb33866040516123c59190615688565b60405180910390a1505050505050565b336123de614c0b565b600160a060020a03821660009081526002602081815260409283902083518154610120601f60001960018416156101009081029190910190931696909604958601859004909402820184019095529384018381529092849284919084018282801561248a5780601f1061245f5761010080835404028352916020019161248a565b820191906000526020600020905b81548152906001019060200180831161246d57829003601f168201915b50505050508152602001600182018054600181600116156101000203166002900480601f01602080910402602001604051908101604052809291908181526020018280546001816001161561010002031660029004801561252c5780601f106125015761010080835404028352916020019161252c565b820191906000526020600020905b81548152906001019060200180831161250f57829003601f168201915b505050918352505060028281015467ffffffffffffffff811660208085019190915268010000000000000000909104600160a060020a031660408085019190915260038501805482516101006001831615026000190190911694909404601f8101849004840285018401909252818452606090940193918301828280156125f45780601f106125c9576101008083540402835291602001916125f4565b820191906000526020600020905b8154815290600101906020018083116125d757829003601f168201915b505050918352505060048201805460408051602060026001851615610100026000190190941693909304601f81018490048402820184019092528181529382019392918301828280156126885780601f1061265d57610100808354040283529160200191612688565b820191906000526020600020905b81548152906001019060200180831161266b57829003601f168201915b50505050508152602001600582018054806020026020016040519081016040528092919081815260200182805480156126e057602002820191906000526020600020905b8154815260200190600101908083116126cc575b505050505081526020016006820180548060200260200160405190810160405280929190818152602001828054801561274257602002820191906000526020600020905b8154600160a060020a03168152600190910190602001808311612724575b50505050508152505090506000600160a060020a03168160600151600160a060020a03161161277057600080fd5b336000908152600360209081526040808320600160a060020a038716845290915290205461ffff166127a157600080fd5b336000818152600360209081526040808320600160a060020a038816808552908352818420805461ffff19169055938352600282528083209383526001909152812060068301549091805b8261ffff168161ffff1610156128445787600160a060020a0316856006018261ffff168154811061281957fe5b600091825260209091200154600160a060020a0316141561283c57809150612844565b6001016127ec565b505b6001820361ffff168161ffff1610156128d957836006018160010161ffff168154811061286f57fe5b600091825260209091200154600685018054600160a060020a039092169161ffff841690811061289b57fe5b6000918252602090912001805473ffffffffffffffffffffffffffffffffffffffff1916600160a060020a0392909216919091179055600101612846565b836006018054806128e657fe5b6000828152602081208201600019908101805473ffffffffffffffffffffffffffffffffffffffff19169055909101909155600484015492509050805b8261ffff168161ffff16101561297b5733600160a060020a0316846004018261ffff168154811061295057fe5b600091825260209091200154600160a060020a031614156129735780915061297b565b600101612923565b505b6001820361ffff168161ffff161015612a1057826004018160010161ffff16815481106129a657fe5b600091825260209091200154600484018054600160a060020a039092169161ffff84169081106129d257fe5b6000918252602090912001805473ffffffffffffffffffffffffffffffffffffffff1916600160a060020a039290921691909117905560010161297d565b82600401805480612a1d57fe5b6000828152602090208101600019908101805473ffffffffffffffffffffffffffffffffffffffff191690550190556040517f212bcbf580385b870fe82b11fdd99334c16d187419727ccfb2b89aea2f87278590612a8090339086908b90615601565b60405180910390a150505050505050565b600054600160a060020a03163314612aa857600080fd5b612ab0614d71565b600160a060020a03848116600090815260066020908152604091829020825160608101845281549094168452600180820180548551600261010094831615949094026000190190911692909204601f8101859004850283018501909552848252919385840193919291830182828015612b6a5780601f10612b3f57610100808354040283529160200191612b6a565b820191906000526020600020905b815481529060010190602001808311612b4d57829003601f168201915b5050509183525050600282810180546040805160206001841615610100026000190190931694909404601f81018390048302850183019091528084529381019390830182828015612bfc5780601f10612bd157610100808354040283529160200191612bfc565b820191906000526020600020905b815481529060010190602001808311612bdf57829003601f168201915b505050919092525050815191925050600160a060020a031615611e3a57600080fd5b600054600160a060020a03163314612c3557600080fd5b612c3d614d71565b600160a060020a03838116600090815260076020908152604091829020825160608101845281549094168452600180820180548551600261010094831615949094026000190190911692909204601f8101859004850283018501909552848252919385840193919291830182828015612cf75780601f10612ccc57610100808354040283529160200191612cf7565b820191906000526020600020905b815481529060010190602001808311612cda57829003601f168201915b5050505050815260200160038201805480602002602001604051908101604052809291908181526020018280548015612d5957602002820191906000526020600020905b8154600160a060020a03168152600190910190602001808311612d3b575b505050919092525050815191925050600160a060020a031615612d7b57600080fd5b60408051606081018252600160a060020a0385811680835260208084018781528551600080825281840188528688019190915292835260078252949091208351815473ffffffffffffffffffffffffffffffffffffffff191693169290921782559251805192939192612df49260018501920190614cf3565b50604082015180516114fb916003840191602090910190614d9b565b600160a060020a038083166000908152600760209081526040808320938516835260028401909152902054600160ff90911610612e4c57600080fd5b6003810180546001810180835560009283526020808420909201805473ffffffffffffffffffffffffffffffffffffffff1916600160a060020a03969096169586179055938252600290920190915260409020805460ff191660ff90921691909117905550565b336000908152600260205260409020612eca614cac565b33600090815260086020908152604091829020825160a0810184528154600160a060020a038116825274010000000000000000000000000000000000000000900467ffffffffffffffff1681840152600180830180548651600261010094831615949094026000190190911692909204601f81018690048602830186018752808352929593949386019391929091830182828015612fa95780601f10612f7e57610100808354040283529160200191612fa9565b820191906000526020600020905b815481529060010190602001808311612f8c57829003601f168201915b5050509183525050600282810180546040805160206001841615610100026000190190931694909404601f8101839004830285018301909152808452938101939083018282801561303b5780601f106130105761010080835404028352916020019161303b565b820191906000526020600020905b81548152906001019060200180831161301e57829003601f168201915b50505091835250506003919091015462ffffff166020909101526002830154909150680100000000000000009004600160a060020a03161561307c57600080fd5b6000816020015167ffffffffffffffff161161309757600080fd5b60405180610100016040528086815260200182606001518152602001826020015167ffffffffffffffff16815260200133600160a060020a03168152602001848152602001858152602001600060405190808252806020026020018201604052801561310d578160200160208202803883390190505b508152602001600060405190808252806020026020018201604052801561313e578160200160208202803883390190505b50905233600090815260026020908152604090912082518051919261316892849290910190614cf3565b5060208281015180516131819260018501920190614cf3565b5060408201516002820180546060850151600160a060020a031668010000000000000000027fffffffff0000000000000000000000000000000000000000ffffffffffffffff67ffffffffffffffff90941667ffffffffffffffff19909216919091179290921691909117905560808201518051613209916003840191602090910190614cf3565b5060a08201518051613225916004840191602090910190614cf3565b5060c08201518051613241916005840191602090910190614e09565b5060e0820151805161325d916006840191602090910190614d9b565b509050507ff0c358f29581a43889abe78660babebd0ac62878d0ed89571af6c2168bbcda0c3360405161329091906155a0565b60405180910390a15050505050565b6000806132aa614c0b565b3360009081526002602081815260409283902083518154610120601f60001960018416156101009081029190910190931696909604958601859004909402820184019095529384018381529092849284919084018282801561334d5780601f106133225761010080835404028352916020019161334d565b820191906000526020600020905b81548152906001019060200180831161333057829003601f168201915b50505050508152602001600182018054600181600116156101000203166002900480601f0160208091040260200160405190810160405280929190818152602001828054600181600116156101000203166002900480156133ef5780601f106133c4576101008083540402835291602001916133ef565b820191906000526020600020905b8154815290600101906020018083116133d257829003601f168201915b505050918352505060028281015467ffffffffffffffff811660208085019190915268010000000000000000909104600160a060020a031660408085019190915260038501805482516101006001831615026000190190911694909404601f8101849004840285018401909252818452606090940193918301828280156134b75780601f1061348c576101008083540402835291602001916134b7565b820191906000526020600020905b81548152906001019060200180831161349a57829003601f168201915b505050918352505060048201805460408051602060026001851615610100026000190190941693909304601f810184900484028201840190925281815293820193929183018282801561354b5780601f106135205761010080835404028352916020019161354b565b820191906000526020600020905b81548152906001019060200180831161352e57829003601f168201915b50505050508152602001600582018054806020026020016040519081016040528092919081815260200182805480156135a357602002820191906000526020600020905b81548152602001906001019080831161358f575b505050505081526020016006820180548060200260200160405190810160405280929190818152602001828054801561360557602002820191906000526020600020905b8154600160a060020a031681526001909101906020018083116135e7575b5050505050815250509050613618614cac565b33600090815260086020908152604091829020825160a0810184528154600160a060020a038116825274010000000000000000000000000000000000000000900467ffffffffffffffff1681840152600180830180548651600261010094831615949094026000190190911692909204601f810186900486028301860187528083529295939493860193919290918301828280156136f75780601f106136cc576101008083540402835291602001916136f7565b820191906000526020600020905b8154815290600101906020018083116136da57829003601f168201915b5050509183525050600282810180546040805160206001841615610100026000190190931694909404601f810183900483028501830190915280845293810193908301828280156137895780601f1061375e57610100808354040283529160200191613789565b820191906000526020600020905b81548152906001019060200180831161376c57829003601f168201915b50505091835250506003919091015462ffffff1660209182015281015190915067ffffffffffffffff868116911614156137cd5750606001516001925090506137d9565b50606001516000925090505b915091565b606060006060806060336137f0614c63565b600160a060020a0382166000908152600160208181526040928390208351815460029481161561010002600019011693909304601f8101839004909202830160e090810190945260c08301828152929390928492909184919084018282801561389a5780601f1061386f5761010080835404028352916020019161389a565b820191906000526020600020905b81548152906001019060200180831161387d57829003601f168201915b5050509183525050600182810154600160a060020a0381166020808501919091527401000000000000000000000000000000000000000090910467ffffffffffffffff166040808501919091526002808601805483516101009682161596909602600019011691909104601f81018490048402850184019092528184526060909401939183018282801561396f5780601f106139445761010080835404028352916020019161396f565b820191906000526020600020905b81548152906001019060200180831161395257829003601f168201915b505050918352505060038201805460408051602060026001851615610100026000190190941693909304601f8101849004840282018401909252818152938201939291830182828015613a035780601f106139d857610100808354040283529160200191613a03565b820191906000526020600020905b8154815290600101906020018083116139e657829003601f168201915b5050505050815260200160048201805480602002602001604051908101604052809291908181526020018280548015613a6557602002820191906000526020600020905b8154600160a060020a03168152600190910190602001808311613a47575b50505050508152505090506000600160a060020a03168160200151600160a060020a031611613a9357600080fd5b613a9b614c63565b336000908152600160208181526040928390208351815460029481161561010002600019011693909304601f8101839004909202830160e090810190945260c083018281529293909284929091849190840182828015613b3c5780601f10613b1157610100808354040283529160200191613b3c565b820191906000526020600020905b815481529060010190602001808311613b1f57829003601f168201915b5050509183525050600182810154600160a060020a0381166020808501919091527401000000000000000000000000000000000000000090910467ffffffffffffffff166040808501919091526002808601805483516101009682161596909602600019011691909104601f810184900484028501840190925281845260609094019391830182828015613c115780601f10613be657610100808354040283529160200191613c11565b820191906000526020600020905b815481529060010190602001808311613bf457829003601f168201915b505050918352505060038201805460408051602060026001851615610100026000190190941693909304601f8101849004840282018401909252818152938201939291830182828015613ca55780601f10613c7a57610100808354040283529160200191613ca5565b820191906000526020600020905b815481529060010190602001808311613c8857829003601f168201915b5050505050815260200160048201805480602002602001604051908101604052809291908181526020018280548015613d0757602002820191906000526020600020905b8154600160a060020a03168152600190910190602001808311613ce9575b5050509190925250508151602083015160a08401516060850151608090950151929d919c509a50929850965090945050505050565b613d44614cac565b600160a060020a03868116600090815260086020908152604091829020825160a081018452815494851681527401000000000000000000000000000000000000000090940467ffffffffffffffff1684830152600180820180548551600261010094831615949094026000190190911692909204601f81018590048502830185018652808352929486019391929091830182828015613e245780601f10613df957610100808354040283529160200191613e24565b820191906000526020600020905b815481529060010190602001808311613e0757829003601f168201915b5050509183525050600282810180546040805160206001841615610100026000190190931694909404601f81018390048302850183019091528084529381019390830182828015613eb65780601f10613e8b57610100808354040283529160200191613eb6565b820191906000526020600020905b815481529060010190602001808311613e9957829003601f168201915b50505091835250506003919091015462ffffff1660209182015281015190915067ffffffffffffffff1615613eea57600080fd5b6040805160a081018252600160a060020a0388811680835267ffffffffffffffff86811660208086019182528587018c8152606087018c905262ffffff8b1660808801526000948552600882529690932085518154925173ffffffffffffffffffffffffffffffffffffffff199093169516949094177fffffffff0000000000000000ffffffffffffffffffffffffffffffffffffffff167401000000000000000000000000000000000000000091909216021782559251805192939192610f869260018501920190614cf3565b6000606080613fc5614d71565b3360009081526006602090815260409182902082516060810184528154600160a060020a03168152600180830180548651600261010094831615949094026000190190911692909204601f810186900486028301860190965285825291949293858101939192919083018282801561407e5780601f106140535761010080835404028352916020019161407e565b820191906000526020600020905b81548152906001019060200180831161406157829003601f168201915b5050509183525050600282810180546040805160206001841615610100026000190190931694909404601f810183900483028501830190915280845293810193908301828280156141105780601f106140e557610100808354040283529160200191614110565b820191906000526020600020905b8154815290600101906020018083116140f357829003601f168201915b505050919092525050815191925050600160a060020a03166141a95780600001516040518060400160405280600581526020017f66616c73650000000000000000000000000000000000000000000000000000008152506040518060400160405280600581526020017f6572726f7200000000000000000000000000000000000000000000000000000081525093509350935050611ff2565b80516020820151604090920151909591945092509050565b6000806141cc614c63565b336000908152600160208181526040928390208351815460029481161561010002600019011693909304601f8101839004909202830160e090810190945260c08301828152929390928492909184919084018282801561426d5780601f106142425761010080835404028352916020019161426d565b820191906000526020600020905b81548152906001019060200180831161425057829003601f168201915b5050509183525050600182810154600160a060020a0381166020808501919091527401000000000000000000000000000000000000000090910467ffffffffffffffff166040808501919091526002808601805483516101009682161596909602600019011691909104601f8101849004840285018401909252818452606090940193918301828280156143425780601f1061431757610100808354040283529160200191614342565b820191906000526020600020905b81548152906001019060200180831161432557829003601f168201915b505050918352505060038201805460408051602060026001851615610100026000190190941693909304601f81018490048402820184019092528181529382019392918301828280156143d65780601f106143ab576101008083540402835291602001916143d6565b820191906000526020600020905b8154815290600101906020018083116143b957829003601f168201915b505050505081526020016004820180548060200260200160405190810160405280929190818152602001828054801561443857602002820191906000526020600020905b8154600160a060020a0316815260019091019060200180831161441a575b505050505081525050905061444b614cac565b33600090815260096020908152604091829020825160a0810184528154600160a060020a038116825274010000000000000000000000000000000000000000900467ffffffffffffffff1681840152600180830180548651600261010094831615949094026000190190911692909204601f8101869004860283018601875280835292959394938601939192909183018282801561452a5780601f106144ff5761010080835404028352916020019161452a565b820191906000526020600020905b81548152906001019060200180831161450d57829003601f168201915b5050509183525050600282810180546040805160206001841615610100026000190190931694909404601f810183900483028501830190915280845293810193908301828280156145bc5780601f10614591576101008083540402835291602001916145bc565b820191906000526020600020905b81548152906001019060200180831161459f57829003601f168201915b50505091835250506003919091015462ffffff1660209182015281015190915067ffffffffffffffff868116911614156146005750602001516001925090506137d9565b50602001516000925090506137d9565b60008054600160a060020a0316331461462857600080fd5b50600054600160a060020a03165b90565b60608060006060614648614c0b565b600160a060020a03861660009081526002602081815260409283902083518154610120601f6000196001841615610100908102919091019093169690960495860185900490940282018401909552938401838152909284928491908401828280156146f45780601f106146c9576101008083540402835291602001916146f4565b820191906000526020600020905b8154815290600101906020018083116146d757829003601f168201915b50505050508152602001600182018054600181600116156101000203166002900480601f0160208091040260200160405190810160405280929190818152602001828054600181600116156101000203166002900480156147965780601f1061476b57610100808354040283529160200191614796565b820191906000526020600020905b81548152906001019060200180831161477957829003601f168201915b505050918352505060028281015467ffffffffffffffff811660208085019190915268010000000000000000909104600160a060020a031660408085019190915260038501805482516101006001831615026000190190911694909404601f81018490048402850184019092528184526060909401939183018282801561485e5780601f106148335761010080835404028352916020019161485e565b820191906000526020600020905b81548152906001019060200180831161484157829003601f168201915b505050918352505060048201805460408051602060026001851615610100026000190190941693909304601f81018490048402820184019092528181529382019392918301828280156148f25780601f106148c7576101008083540402835291602001916148f2565b820191906000526020600020905b8154815290600101906020018083116148d557829003601f168201915b505050505081526020016005820180548060200260200160405190810160405280929190818152602001828054801561494a57602002820191906000526020600020905b815481526020019060010190808311614936575b50505050508152602001600682018054806020026020016040519081016040528092919081815260200182805480156149ac57602002820191906000526020600020905b8154600160a060020a0316815260019091019060200180831161498e575b50505091909252505081516020808401516060850151600160a060020a038c166000908152600584526040808220805482518188028101880190935280835298995095979396509194939192849290919084015b82821015614bf55760008481526020908190206040805160038602909201805460026001821615610100026000190190911604601f8101859004909402830160809081019092526060830184815292939092849290918491840182828015614aa95780601f10614a7e57610100808354040283529160200191614aa9565b820191906000526020600020905b815481529060010190602001808311614a8c57829003601f168201915b50505050508152602001600182018054600181600116156101000203166002900480601f016020809104026020016040519081016040528092919081815260200182805460018160011615610100020316600290048015614b4b5780601f10614b2057610100808354040283529160200191614b4b565b820191906000526020600020905b815481529060010190602001808311614b2e57829003601f168201915b5050509183525050600282810180546040805160206001841615610100026000190190931694909404601f81018390048302850183019091528084529381019390830182828015614bdd5780601f10614bb257610100808354040283529160200191614bdd565b820191906000526020600020905b815481529060010190602001808311614bc057829003601f168201915b50505050508152505081526020019060010190614a00565b5050505090509450945094509450509193509193565b6040518061010001604052806060815260200160608152602001600067ffffffffffffffff1681526020016000600160a060020a03168152602001606081526020016060815260200160608152602001606081525090565b6040518060c00160405280606081526020016000600160a060020a03168152602001600067ffffffffffffffff1681526020016060815260200160608152602001606081525090565b6040518060a001604052806000600160a060020a03168152602001600067ffffffffffffffff1681526020016060815260200160608152602001600062ffffff1681525090565b828054600181600116156101000203166002900490600052602060002090601f016020900481019282601f10614d3457805160ff1916838001178555614d61565b82800160010185558215614d61579182015b82811115614d61578251825591602001919060010190614d46565b50614d6d929150614e43565b5090565b60405180606001604052806000600160a060020a0316815260200160608152602001606081525090565b828054828255906000526020600020908101928215614dfd579160200282015b82811115614dfd578251825473ffffffffffffffffffffffffffffffffffffffff1916600160a060020a03909116178255602090920191600190910190614dbb565b50614d6d929150614e5d565b828054828255906000526020600020908101928215614d615791602002820182811115614d61578251825591602001919060010190614d46565b61463691905b80821115614d6d5760008155600101614e49565b61463691905b80821115614d6d57805473ffffffffffffffffffffffffffffffffffffffff19168155600101614e63565b8035614e9981615912565b92915050565b600082601f830112614eb057600080fd5b8135614ec3614ebe8261583e565b615817565b91508082526020830160208301858383011115614edf57600080fd5b614eea8382846158cc565b50505092915050565b8035614e9981615929565b8035614e9981615932565b600060208284031215614f1b57600080fd5b6000614f278484614e8e565b949350505050565b60008060408385031215614f4257600080fd5b6000614f4e8585614e8e565b9250506020614f5f85828601614e8e565b9150509250929050565b60008060408385031215614f7c57600080fd5b6000614f888585614e8e565b925050602083013567ffffffffffffffff811115614fa557600080fd5b614f5f85828601614e9f565b600080600060608486031215614fc657600080fd5b6000614fd28686614e8e565b935050602084013567ffffffffffffffff811115614fef57600080fd5b614ffb86828701614e9f565b925050604084013567ffffffffffffffff81111561501857600080fd5b61502486828701614e9f565b9150509250925092565b6000806000806080858703121561504457600080fd5b60006150508787614e8e565b945050602085013567ffffffffffffffff81111561506d57600080fd5b61507987828801614e9f565b935050604085013567ffffffffffffffff81111561509657600080fd5b6150a287828801614e9f565b925050606085013567ffffffffffffffff8111156150bf57600080fd5b6150cb87828801614e9f565b91505092959194509250565b600080600080600060a086880312156150ef57600080fd5b60006150fb8888614e8e565b955050602086013567ffffffffffffffff81111561511857600080fd5b61512488828901614e9f565b945050604086013567ffffffffffffffff81111561514157600080fd5b61514d88828901614e9f565b935050606061515e88828901614ef3565b925050608061516f88828901614efe565b9150509295509295909350565b60008060006060848603121561519157600080fd5b833567ffffffffffffffff8111156151a857600080fd5b614fd286828701614e9f565b6000602082840312156151c657600080fd5b6000614f278484614efe565b60006151de8383615214565b505060200190565b60006151de838361533b565b60006151fe8383615526565b9392505050565b61520e816158bb565b82525050565b61520e8161588a565b600061522882615878565b615232818561587c565b935061523d83615866565b8060005b8381101561526b57815161525588826151d2565b975061526083615866565b925050600101615241565b509495945050505050565b600061528182615878565b61528b818561587c565b935061529683615866565b8060005b8381101561526b5781516152ae88826151e6565b97506152b983615866565b92505060010161529a565b60006152cf82615878565b6152d9818561587c565b9350836020820285016152eb85615866565b8060005b85811015615325578484038952815161530885826151f2565b945061531383615866565b60209a909a01999250506001016152ef565b5091979650505050505050565b61520e81615895565b61520e81614636565b600061534f82615878565b615359818561587c565b93506153698185602086016158d8565b61537281615908565b9093019392505050565b600061538782615878565b6153918185615885565b93506153a18185602086016158d8565b9290920192915050565b6000815460018116600081146153c857600181146153ee5761542d565b607f60028304166153d9818761587c565b60ff198416815295505060208501925061542d565b600282046153fc818761587c565b95506154078561586c565b60005b828110156154265781548882015260019091019060200161540a565b8701945050505b505092915050565b600061544260148361587c565b7f5265676973746572656420617320446f63746f72000000000000000000000000815260200192915050565b600061547b60158361587c565b7f526567697374657265642061732050617469656e740000000000000000000000815260200192915050565b60006154b460188361587c565b7f4772616e7465642061636365737320746f20646f63746f720000000000000000815260200192915050565b60006154ed60188361587c565b7f5265766f6b656420616363657373206f6620646f63746f720000000000000000815260200192915050565b6000614e99600083615885565b805160608084526000919084019061553e8282615344565b915050602083015184820360208601526155588282615344565b915050604083015184820360408601526155728282615344565b95945050505050565b60006151fe828461537c565b6000614e9982615519565b60208101614e998284615214565b604081016155ae8284615205565b81810360208301526151fe8161546e565b608081016155cd8286615205565b81810360208301526155de816154a7565b905081810360408301526155f281856153ab565b9050614f276060830184615214565b6080810161560f8286615205565b81810360208301526155de816154e0565b6060810161562e8286615214565b81810360208301526156408185615344565b90508181036040830152615572818461521d565b606081016156628286615214565b81810360208301526156748185615344565b905081810360408301526155728184615344565b604081016156968284615214565b81810360208301526151fe81615435565b602080825281016151fe81846152c4565b604081016156c68285615332565b6151fe6020830184615214565b60a080825281016156e48188615344565b90506156f36020830187615214565b8181036040830152615705818661521d565b905081810360608301526157198185615344565b9050818103608083015261572d8184615344565b979650505050505050565b60e08082528101615749818a615344565b90506157586020830189615214565b818103604083015261576a8188615344565b9050818103606083015261577e8187615276565b90508181036080830152615792818661521d565b905081810360a08301526157a68185615344565b905081810360c08301526157ba8184615344565b9998505050505050505050565b608080825281016157d88187615344565b905081810360208301526157ec8186615344565b90506157fb6040830185615214565b818103606083015261580d81846152c4565b9695505050505050565b60405181810167ffffffffffffffff8111828210171561583657600080fd5b604052919050565b600067ffffffffffffffff82111561585557600080fd5b506020601f91909101601f19160190565b60200190565b60009081526020902090565b5190565b90815260200190565b919050565b6000614e998261589a565b151590565b600160a060020a031690565b62ffffff1690565b67ffffffffffffffff1690565b6000614e99826000614e998261588a565b82818337506000910152565b60005b838110156158f35781810151838201526020016158db565b83811115615902576000848401525b50505050565b601f01601f191690565b61591b8161588a565b811461592657600080fd5b50565b61591b816158a6565b61591b816158ae56fea365627a7a72315820c760826aed730fec04720f97a30b27b754d528e80f8a72517098e38838ffe97b6c6578706572696d656e74616cf564736f6c63430005110040",
  "source": "pragma solidity >=0.4.21 <0.7.0;\r\npragma experimental ABIEncoderV2;\r\n\r\n\r\ncontract optimized_healthCare {\r\n\r\n  address private owner;\r\n  mapping (address => doctor) private doctors;\r\n  \r\n  mapping (address => patient) private patients; //mapping patients to their addresses\r\n  mapping (address => mapping (address => uint16)) private patientToDoctor; //patients and list of doctors allowed access to\r\n  mapping (address => mapping (bytes32 => uint16)) private patientToFile; //files mapped to patients\r\n  mapping (address => files[]) private patientFiles;\r\n  mapping (address => hospital) private hospitals;\r\n  mapping (address => insuranceComp) insuranceCompanies;\r\n  // mapping (address => doctorAddedFiles[]) private doctorAddedPatientFiles;\r\n  // mapping (address => doctorOfferedConsultation[]) private doctorOfferedConsultationList;\r\n  mapping (address => adhaar) patient_adhaar_info;\r\n  mapping (address => adhaar) doctor_adhaar_info;\r\n\r\n\r\n  struct adhaar{\r\n    address id;\r\n    uint64 adhaar_number;\r\n    string name;\r\n    string DOB;\r\n    uint24 pincode;\r\n  }\r\n\r\n  //structure of patient file\r\n  struct files{\r\n      string file_name;\r\n      string file_type;\r\n      string file_hash;\r\n  }\r\n  \r\n  //structure of hospital\r\n  struct hospital{\r\n    address id;  \r\n    string name;\r\n    string location;\r\n  }\r\n  \r\n  //structure of Insurance companies\r\n  struct insuranceComp{\r\n    address id;  \r\n    string name;\r\n    mapping (address => uint8) regPatientsMapping;\r\n    address[] regPatients;\r\n  }\r\n  \r\n\r\n  //structure of patient info\r\n  struct patient {\r\n    string name;\r\n    string DOB;\r\n    uint64 adhaar_number;\r\n    address id;\r\n    string gender;\r\n    string contact_info;\r\n\r\n    bytes32[] files;// hashes of file that belong to this user for display purpose\r\n    address[] doctor_list;\r\n  }\r\n  \r\n \r\n  //structure of doctor info\r\n  struct doctor {\r\n      string name;\r\n      address id;\r\n      uint64 adhaar_number;\r\n      string contact;\r\n      string specialization;\r\n      address[] patient_list;\r\n  }\r\n\r\n  //setting the owner\r\n  constructor() public {\r\n    owner = 0x37e9fFC8CBA8B57fe0aCf3E13Ae0B1837Bb7fC15;\r\n  }\r\n  \r\n  //verify doctor \r\n  modifier checkDoctor(address id) {\r\n    doctor memory d = doctors[id];\r\n    require(d.id > address(0x0));//check if doctor exist\r\n    _;\r\n  }\r\n  \r\n  //verify patient\r\n  modifier checkPatient(address id) {\r\n    patient memory p = patients[id];\r\n    require(p.id > address(0x0));//check if patient exist\r\n    _;\r\n  }\r\n\r\n \r\n  //owner verification modifier\r\n  modifier onlyOwner() {\r\n    require(msg.sender == owner);\r\n    _;\r\n  }\r\n   \r\n\r\n\r\n  function hospitalSignUp(address _id, string memory _name, string memory _location ) public onlyOwner() {\r\n    \r\n    hospital memory h= hospitals[_id];\r\n    require(!(h.id > address(0x0)));\r\n    require(keccak256(abi.encodePacked(_name)) != keccak256(\"\"));\r\n    hospitals[_id] = hospital({id:_id, name:_name, location: _location});\r\n  }\r\n\r\n  //Event to emit when new patient registers\r\n  event patientSignUp( address _patient, string message);\r\n\r\n  function signupPatient(string memory _name, string memory _contact, string memory _gender) public {\r\n\r\n    //search for patient on blockchain by address \r\n    patient storage p = patients[msg.sender];\r\n    adhaar memory a = patient_adhaar_info[msg.sender];\r\n    //Check if the patient already exists by address\r\n    require(!(p.id > address(0x0)));\r\n    //Add patient to blockchain\r\n    require(a.adhaar_number > 0);\r\n\r\n    patients[msg.sender] = patient({name:_name, DOB: a.DOB, id:msg.sender, adhaar_number: a.adhaar_number, gender:_gender, contact_info:_contact, files:new bytes32[](0), doctor_list:new address[](0)});\r\n    \r\n\r\n    emit patientSignUp( msg.sender, \"Registered as Patient\");\r\n  }\r\n  \r\n\r\n  //Event to emit when new doctor registers\r\n  event doctorSignUp(address _doctor, string message);\r\n\r\n  function signupDoctor(address _id, string memory _name, string memory _contact, string memory _specialization) public {\r\n\r\n      //search for doctor on blockchain\r\n      doctor storage d = doctors[_id];\r\n      adhaar memory a = doctor_adhaar_info[_id];\r\n      //check name of doctor\r\n      require(keccak256(abi.encodePacked(_name)) != keccak256(\"\"));\r\n      //check if doctor already exists\r\n      require(!(d.id > address(0x0)));\r\n\r\n      require(a.adhaar_number > 0);\r\n      //Add the doctor to blockchain\r\n      doctors[_id] = doctor({name:_name, id:_id, contact:_contact, adhaar_number: a.adhaar_number, specialization: _specialization, patient_list:new address[](0)});\r\n     \r\n      emit doctorSignUp(_id, \"Registered as Doctor\");\r\n  }\r\n\r\n\r\n  //Event to emit when patient grants access to doctor\r\n  event grantDoctorAccess( address patient_address, string message, string _doctor, address doctor_address);\r\n  \r\n  function grantAccessToDoctor(address doctor_id) public checkPatient(msg.sender) checkDoctor(doctor_id) {\r\n      \r\n      patient storage p = patients[msg.sender];\r\n      doctor storage d = doctors[doctor_id];\r\n      require(patientToDoctor[msg.sender][doctor_id] < 1);// this means doctor already been access\r\n      \r\n      uint16 pos = (uint16)(p.doctor_list.push(doctor_id));// new length of array\r\n      \r\n      patientToDoctor[msg.sender][doctor_id] = pos;\r\n      d.patient_list.push(msg.sender);\r\n\r\n   \r\n      \r\n      emit grantDoctorAccess( msg.sender , \"Granted access to doctor\", d.name , doctor_id);\r\n  }\r\n\r\n  //Event to emit when patient revokes a doctor's access\r\n  event revokeDoctorAccess(address patient_address, string message, string _doctor, address doctor_address);\r\n\r\n  function revokeAccessFromDoctor(address doctor_id) public checkPatient(msg.sender){\r\n    require(patientToDoctor[msg.sender][doctor_id] > 0);\r\n    patientToDoctor[msg.sender][doctor_id] = 0;\r\n\r\n\r\n    patient storage p = patients[msg.sender];\r\n    doctor storage d = doctors[doctor_id];\r\n\r\n    uint16 pdlength= (uint16)(p.doctor_list.length);\r\n    uint16 pos=0;\r\n\r\n    for (uint16 i = 0; i < pdlength; i++) {\r\n      if(p.doctor_list[i] == doctor_id)\r\n      {\r\n        pos=i;\r\n        break;\r\n      }\r\n    }\r\n\r\n    for(;pos<pdlength-1;pos++)\r\n    {\r\n      p.doctor_list[pos]= p.doctor_list[pos+1];\r\n    }\r\n\r\n    p.doctor_list.pop();\r\n\r\n    pdlength= (uint16)(d.patient_list.length);\r\n    pos=0;\r\n\r\n    for (uint16 i = 0; i < pdlength; i++) {\r\n      if(d.patient_list[i] == msg.sender)\r\n      {\r\n        pos=i;\r\n        break;\r\n      }\r\n    }\r\n\r\n    for(;pos<pdlength-1;pos++)\r\n    {\r\n      d.patient_list[pos]= d.patient_list[pos+1];\r\n    }\r\n\r\n    d.patient_list.pop();\r\n\r\n    emit revokeDoctorAccess(msg.sender, \"Revoked access of doctor\", d.name, doctor_id);\r\n  }\r\n  \r\n\r\n\r\n  function addUserFiles(string memory _file_name, string memory _file_type,string memory _file_hash) public{\r\n\r\n    patientFiles[msg.sender].push(files({file_name:_file_name, file_type:_file_type,file_hash:_file_hash}));\r\n\r\n  }\r\n\r\n\r\n  function getUserFiles(address sender)public view returns(files[] memory){\r\n      return patientFiles[sender];\r\n  }\r\n\r\n\r\n\r\n  function getPatientInfo() public view checkPatient(msg.sender) returns(string memory,address, string memory, bytes32[] memory , address[] memory, string memory, string memory) {\r\n      \r\n    patient memory p = patients[msg.sender];\r\n    return (p.name, p.id, p.DOB, p.files, p.doctor_list, p.gender, p.contact_info );\r\n  }\r\n\r\n\r\n\r\n  function getDoctorInfo() public view checkDoctor(msg.sender) returns(string memory, address, address[] memory, string memory, string memory) {\r\n      doctor memory d = doctors[msg.sender];\r\n\r\n      return (d.name, d.id, d.patient_list, d.contact, d.specialization);\r\n  }\r\n  \r\n  function checkDoctorInfo(uint64 _adhaar_number) public view returns(bool, address) {\r\n    \r\n    doctor memory d = doctors[msg.sender];\r\n    adhaar memory a = doctor_adhaar_info[msg.sender];\r\n   \r\n   if (a.adhaar_number == _adhaar_number){\r\n      return (true, d.id);\r\n    }\r\n\r\n    else \r\n      return (false, d.id);\r\n\r\n  }\r\n\r\n  function checkPatientInfo(uint64 _adhaar_number) public view returns(bool, address) {\r\n    patient memory p = patients[msg.sender];\r\n    adhaar memory a = patient_adhaar_info[msg.sender];\r\n    if (a.adhaar_number == _adhaar_number){\r\n      return (true,p.id);\r\n    }\r\n\r\n    else \r\n      return (false,p.id);\r\n\r\n  }\r\n  \r\n  \r\n  function getPatientInfoForDoctor(address pat) public view returns(string memory, string memory, address, files[] memory){\r\n      patient memory p = patients[pat];\r\n      return (p.name, p.DOB, p.id, patientFiles[pat]);\r\n    }\r\n\r\n  function getHospitalInfo() public view returns(address, string memory, string memory)\r\n  {\r\n    hospital memory h = hospitals[msg.sender];\r\n    if(h.id == 0x0000000000000000000000000000000000000000)\r\n    {\r\n      return (h.id,\"false\",\"error\");\r\n    }\r\n    return (h.id, h.name, h.location);\r\n  }\r\n\r\n  function getOwnerInfo() public view  onlyOwner() returns(address)\r\n  {\r\n    return (owner);\r\n  }\r\n\r\n  function hospitalGrantAccess(address _user, address _patient) public checkPatient(_patient)\r\n  {\r\n    doctor storage d = doctors[_user];\r\n    patient storage p = patients[_patient];\r\n    if(d.id > address(0x0))\r\n    {\r\n      require(patientToDoctor[_patient][_user] < 1);// this means doctor already been access\r\n      \r\n      uint16 pos = (uint16)(p.doctor_list.push(_user));// new length of array\r\n      \r\n      patientToDoctor[_patient][_user] = pos;\r\n      d.patient_list.push(_patient);    \r\n    }\r\n  }\r\n\r\n  function addHospital(address _id, string memory _name, string memory _location) public onlyOwner(){\r\n    hospital memory h = hospitals[_id];\r\n    require(!(h.id > address(0x0)));\r\n    hospitals[_id] = hospital({id:_id, name:_name, location:_location});\r\n  }\r\n \r\n  function regInsuranceComp(address _id, string memory _name) public onlyOwner() {\r\n    insuranceComp memory i= insuranceCompanies[_id];\r\n    require(!(i.id> address(0x0)));\r\n    insuranceCompanies[_id] = insuranceComp({id:_id, name:_name, regPatients: new address[](0)});\r\n  } \r\n\r\n  function getInsuranceCompInfo() public view returns(address,string memory, address[] memory){\r\n    insuranceComp memory i= insuranceCompanies[msg.sender];\r\n    return(i.id,i.name,i.regPatients);\r\n  }\r\n\r\n  function addPatientToInsuranceComp(address _insuranceComp, address _pat) public{\r\n    insuranceComp storage i = insuranceCompanies[_insuranceComp];\r\n    require(i.regPatientsMapping[_pat]<1);\r\n    uint8 pos=(uint8)(i.regPatients.push(_pat));\r\n    i.regPatientsMapping[_pat]=pos;\r\n  }\r\n\r\n\r\n\r\n  function addDoctorAdhaarInfo(address _doc, string memory _name, string memory _DOB, uint24 _pincode, uint64 _adhaar_number) public {\r\n    adhaar memory a = doctor_adhaar_info[_doc];\r\n    require(a.adhaar_number == 0);\r\n    doctor_adhaar_info[_doc] = adhaar({id:_doc, pincode: _pincode, name: _name, DOB: _DOB, adhaar_number: _adhaar_number});\r\n  }\r\n\r\n  function addPatientAdhaarInfo(address _pat, string memory _name, string memory _DOB, uint24 _pincode, uint64 _adhaar_number) public {\r\n    adhaar memory a = patient_adhaar_info[_pat];\r\n    require(a.adhaar_number == 0);\r\n    patient_adhaar_info[_pat] = adhaar({id:_pat, pincode: _pincode, name: _name, DOB: _DOB, adhaar_number: _adhaar_number});\r\n  }\r\n  \r\n}",
  "sourcePath": "D:\\mp\\miniproject\\contracts\\optimized_healthCare.sol",
  "compiler": {
    "name": "solc",
    "version": "0.5.17+commit.d19bba13.Emscripten.clang"
  },
  "schemaVersion": "3.0.23",
  "updatedAt": "2022-06-22T06:35:15.443Z",
  "devdoc": {
    "methods": {}
  },
  "userdoc": {
    "methods": {}
  }
}